:1000000012C021C020C01FC01EC01DC01CC01BC00C
:100010001AC019C018C017C016C015C014C013C02C
:1000200012C011C010C011241FBECFE5D4E0DEBF46
:10003000CDBF10E0A0E6B0E001C01D92A136B1072F
:10004000E1F73FD046C0DCCFAA9820E030E060E87E
:1000500070E0482F50E0CB01022E02C095958795A5
:100060000A94E2F784239523892B11F0AB9A01C0FF
:10007000AB98AA98AA9A2F5F3F4F2830310559F7BD
:10008000089596B3917080916000891711F480E013
:1000900008959093600080E0913009F481E0089524
:1000A0000F931F9300E010E0ECDF882321F0110F85
:1000B0000F5FB19911600830B8F3812F1F910F9134
:1000C00008958FEF84BB17BA10926000E9DFBCDFA0
:0600D000FDCFF894FFCF04
:00000001FF
